:100000000C9434000C9449000C9449000C94490061
:100010000C9449000C9449000C9449000C9449003C
:100020000C9449000C9449000C9449000C9449002C
:100030000C9449000C9449000C9449000C9449001C
:100040000C9449000C9449000C9449000C9449000C
:100050000C9449000C9449000C9449000C944900FC
:100060000C9449000C94490011241FBECFEFD8E036
:10007000DEBFCDBF11E0A0E0B1E0E8EFF0E002C0EC
:1000800005900D92A430B107D9F70E946A000C9434
:100090007A000C9400009091C00095FFFCCF8093F3
:1000A000C6000895CF93DF93EC018991882319F05E
:1000B0000E944B00FACFDF91CF9108951092C500B6
:1000C00087E68093C40088E08093C10086E0809337
:1000D000C20008950E945E0080E091E00E945200FC
:1000E0002FEF83ED90E3215080409040E1F700C076
:0800F0000000F2CFF894FFCFED
:0400F80068696900CA
:00000001FF
