:100000000C9434000C9446000C9446000C9446006A
:100010000C9446000C9446000C9446000C94460048
:100020000C9446000C9446000C9446000C94460038
:100030000C9446000C9446000C9446000C94460028
:100040000C9446000C9446000C9446000C94460018
:100050000C9446000C9446000C9446000C94460008
:100060000C9446000C94460011241FBECFEFD8E03C
:10007000DEBFCDBF21E0A0E0B1E001C01D92A037FE
:10008000B207E1F70E9458000C9459000C9400004C
:100090008C3160F494E0899FF0011124E050FF4F0F
:1000A000718360835383428381E0089580E00895E3
:0600B000FFCFF894FFCF22
:00000001FF
